S0140000726F73696C70726F6A6563742E73726563F0
S113000086C00000A3C00000C3C000009EC0000062
S11300109CC000009AC0000098C0000096C0000078
S113002094C0000092C0000090C000008EC0000088
S11300308CC000008AC0000088C0000086C0000098
S1130040FCC5000082C0000080C000007EC000002B
S11300507CC000007AC0000078C0000076C00000B8
S113006074C0000072C0000070C000006EC00000C8
S11300706CC000006AC0000068C0000066C00000D8
S113008064C0000062C0000060C0000008000000FE
S1130090BE922449123EABAAAA2ABECDCCCC4C3E79
S11300A000000080BEABAAAAAA3E00000000BF0068
S11300B00000803F0000000000084178D3BB438764
S11300C0D1133D190E3CC3BD4282AD2B3E68EC8278
S11300D076BED98FE1A93E4C80EFFFBE01C4FF7FFD
S11300E03F000000000007634236B79BD8A71A39C7
S11300F0685618AEBAAB558C1D3CB7CC5763BD6D72
S1130100EDFD753EF6177231BF000000803F1124EB
S11301101FBECFEFD0E1DEBFCDBF13E0A0E0B1E062
S1130120EAE3FEE100E00BBF02C007900D92AC329F
S1130130B107D9F725E0ACE2B3E001C01D92AA3BB8
S1130140B207E1F7CCD40C941B0F5ACF1F920F9235
S11301500FB60F9211248F939F9380918C059091E9
S11301608D05059729F410928D0510928C0509C010
S113017080918C0590918D05019690938D058093C7
S11301808C059F918F910F900FBE0F901F90189523
S11301901F920F920FB60F9211240F900FBE0F9063
S11301A01F901895CF92DF92EF92FF920F931F93B7
S11301B0CF93DF93CDB7DEB7C059D1400FB6F894D3
S11301C0DEBF0FBECDBFFE01319620E931E0DF0175
S11301D0A9011D9241505040E1F76093440370938C
S11301E04503809346039093470310924003109273
S11301F04103109242031092430300E010E098017F
S1130200220F331F220F331FF901E05EFE4F60817E
S1130210718182819381F901EC5BFC4F20813181F2
S113022042815381C0904003D0904103E090420347
S1130230F09043030E94710DA70196010E946F0B79
S1130240609340037093410380934203909343036C
S11302500F5F1F4F0536110591F6DE0111969D01C2
S113026080E090E0FC01EE0FFF1FEE0FFF1FEC5B40
S1130270FC4F4081518162817381F9014193519313
S1130280619371939F0101968436910559F780E03B
S113029090E001964D915D916D917D91FC01EE0F81
S11302A0FF1FEE0FFF1FEC5BFC4F40835183628303
S11302B073838436910569F760914003709141031B
S11302C08091420390914303C057DE4F0FB6F894D8
S11302D0DEBF0FBECDBFDF91CF911F910F91FF9075
S11302E0EF90DF90CF900895CF92DF92EF92FF923C
S11302F00F931F93CF93DF9360932C0570932D0579
S113030080932E0590932F051092200510922105BD
S11303101092220510922305C0E0D0E000E215E01F
S11303209E01220F331F220F331FF901E85FFC4F98
S11303306081718182819381F901E45DFA4F2081AA
S1130340318142815381F801C080D180E280F38001
S11303500E94710DA70196010E946F0BF801608342
S11303607183828393832196C330D105C9F60CEF40
S113037012E0F8012481358146815781C0E2D5E03D
S11303806C817D818E819F81C880D980EA80FB80C9
S11303900E94710D9B01AC01C701B6010E946E0B56
S11303A0688379838A839B83F8016085718582855C
S11303B09385288539854A855B85C880D980EA80FC
S11303C0FB800E94710D9B01AC01C701B6010E9424
S11303D06E0B688379838A839B838C819D81AE8134
S11303E0BF81488159816A817B814C835D836E839F
S11303F07F8388879987AA87BB87ECE2F5E08481AD
S11304009581A681B7814081518162817381448342
S113041055836683778380879187A287B3876881B2
S113042079818A819B81DF91CF911F910F91FF90F8
S1130430EF90DF90CF900895CF92DF92EF92FF92EA
S11304400F931F93CF93DF936093E4047093E504B9
S11304508093E6049093E7041092D8041092D90490
S11304601092DA041092DB04C0E0D0E008ED14E04E
S11304709E01220F331F220F331FF901E054FD4F59
S11304806081718182819381F901EC51FB4F20815C
S1130490318142815381F801C080D180E280F380B0
S11304A00E94710DA70196010E946F0BF8016083F1
S11304B07183828393832196C330D105C9F604EBFB
S11304C012E0F8012481358146815781C8EDD4E0DA
S11304D06C817D818E819F81C880D980EA80FB8078
S11304E00E94710D9B01AC01C701B6010E946E0B05
S11304F0688379838A839B83F8016085718582850B
S11305009385288539854A855B85C880D980EA80AA
S1130510FB800E94710D9B01AC01C701B6010E94D2
S11305206E0B688379838A839B838C819D81AE81E2
S1130530BF81488159816A817B814C835D836E834D
S11305407F8388879987AA87BB87E4EEF4E0848158
S11305509581A681B78140815181628173814483F1
S113056055836683778380879187A287B387688161
S113057079818A819B81DF91CF911F910F91FF90A7
S1130580EF90DF90CF900895CF92DF92EF92FF9299
S11305900F931F93CF93DF93609314057093150506
S11305A0809316059093170510920805109209057B
S11305B010920A0510920B05C0E0D0E008E015E0A7
S11305C09E01220F331F220F331FF901E051FD4F0B
S11305D06081718182819381F901EC5EFA4F2081FF
S11305E0318142815381F801C080D180E280F3805F
S11305F00E94710DA70196010E946F0BF8016083A0
S11306007183828393832196C330D105C9F604EEA6
S113061012E0F8012481358146815781C8E0D5E094
S11306206C817D818E819F81C880D980EA80FB8026
S11306300E94710D9B01AC01C701B6010E946E0BB3
S1130640688379838A839B83F801608571858285B9
S11306509385288539854A855B85C880D980EA8059
S1130660FB800E94710D9B01AC01C701B6010E9481
S11306706E0B688379838A839B838C819D81AE8191
S1130680BF81488159816A817B814C835D836E83FC
S11306907F8388879987AA87BB87E4E1F5E0848113
S11306A09581A681B78140815181628173814483A0
S11306B055836683778380879187A287B387688110
S11306C079818A819B81DF91CF911F910F91FF9056
S11306D0EF90DF90CF900895CF92DF92EF92FF9248
S11306E00F931F93CF93DF936093FC047093FD04E7
S11306F08093FE049093FF041092F0041092F1048E
S11307001092F2041092F304C0E0D0E000EF14E081
S11307109E01220F331F220F331FF901E852FD4FB0
S11307206081718182819381F901E450FB4F2081C2
S1130730318142815381F801C080D180E280F3800D
S11307400E94710DA7019601CAD7F80160837183D5
S1130750828393832196C330D105D1F60CEC12E049
S1130760F8012481358146815781C0EFD4E06C8142
S11307707D818E819F81C880D980EA80FB800E9420
S1130780710D9B01AC01C701B601A8D768837983B9
S11307908A839B83F801608571858285938528858A
S11307A039854A855B85C880D980EA80FB800E94B0
S11307B0710D9B01AC01C701B60190D768837983A1
S11307C08A839B838C819D81AE81BF8148815981BD
S11307D06A817B814C835D836E837F83888799875D
S11307E0AA87BB87ECEFF4E084819581A681B78169
S11307F04081518162817381448355836683778309
S113080080879187A287B387688179818A819B8158
S1130810DF91CF911F910F91FF90EF90DF90CF90D8
S113082008954F925F926F927F928F929F92AF92B0
S1130830BF92CF92DF92EF92FF920F931F93CF93C9
S1130840DF93CDB7DEB72C970FB6F894DEBF0FBE9B
S1130850CDBF6D837E838F839887609128037091C9
S1130860290380912A0390912B032091180330913E
S1130870190340911A0350911B030E94710D609358
S11308804005709341058093420590934305609120
S113089028037091290380912A0390912B032091BE
S11308A0140330911503409116035091170340909F
S11308B028035090290360902A0370902B038090A2
S11308C0200390902103A0902203B09023030E9460
S11308D0710DA30192010E94710DA5019401FFD62F
S11308E060933C0570933D0580933E0590933F05CE
S11308F060913C0570913D0580913E0590913F05C6
S1130900209124033091250340912603509127031D
S1130910E0902403F090250300912603109127030F
S1130920E982FA820B831C8340903C0550903D057C
S113093060903E0570903F058090240390902503BD
S1130940A0902603B0902703C0901C03D0901D03F1
S1130950E0901E03F0901F030E94710D69877A874F
S11309608B879C87A301920169817A818B819C8109
S11309700E94710DA50194010E94710DA7019601B9
S1130980AED69B01AC0169857A858B859C850FD792
S1130990609338057093390580933A0590933B052D
S11309A0609124037091250380912603909127037D
S11309B020914005309141054091420550914305F5
S11309C0409038055090390560903A0570903B0589
S11309D08090400590904105A0904205B090430559
S11309E00E94710D9B01AC016D817E818F81988580
S11309F075D6A30192010E94710DA50194016FD6D1
S1130A00609318037093190380931A0390931B0344
S1130A10C0903C05D0903D05E0903E05F0903F0528
S1130A20609138057091390580913A0590913B05A4
S1130A3020912403309125034091260350912703EC
S1130A4080903C0590903D05A0903E05B0903F05F8
S1130A500E94710DA50194010E94710D9B01AC01CE
S1130A60C701B6013BD660931403709315038093BA
S1130A7016039093170360911803709119038091E2
S1130A801A0390911B032C960FB6F894DEBF0FBE89
S1130A90CDBFDF91CF911F910F91FF90EF90DF9029
S1130AA0CF90BF90AF909F908F907F906F905F900A
S1130AB04F9008951BB828E12AB996E090939500C9
S1130AC01092900087E689B910929B0020939A00B7
S1130AD090939D00109298008093990008958FEF51
S1130AE08ABB87BB9FEE94BB98EE91BB9EEF92B9F5
S1130AF0109261008BBB8AEE85BB87E083BF81E0E7
S1130B0087BF84E682BF8AE080936A0083E089BF5E
S1130B108AEA8FBD2BE12EBD87E893E197BD86BDA0
S1130B203AE830938B0020938A009093810080935D
S1130B30800080E487B987E886B97894BBDFFFCF6B
S1130B405D9BFECF8CB90895EBE9F0E0908195FFB1
S1130B50FDCF80939C000895EF92FF920F931F9313
S1130B60CF93DF93EC0199232CF48DE2EDDFD19543
S1130B70C195D109CE0160E177E20E94F40E7C01B7
S1130B8080E3860FE1DF08EE13E0C701B8010E949D
S1130B90F40E80E3860FD8DFCE01B8010E94F40E74
S1130BA004E610E0B8010E94F40E80E3860FCCDF67
S1130BB0CE01B8010E94F40E0AE010E0B8010E94D0
S1130BC0F40E80E3860FC0DFCE01B8010E94F40E5C
S1130BD0805DBADFDF91CF911F910F91FF90EF906D
S1130BE00895FF920F931F93CF93DF93F82E162F40
S1130BF0C72F042FD52F8FEFA3DF8FEFA1DF8F2D0A
S1130C009FDF87E09DDF83E09BDF8EE199DF812F0B
S1130C1097DF8C2F95DF802F93DF8D2F91DF88E274
S1130C208F0D800F810F8D0F8C0F809589DFDF91E1
S1130C30CF911F910F91FF9008951F920F920FB6BD
S1130C400F9211240BB60F924F925F926F927F9284
S1130C508F929F92AF92BF92CF92DF92EF92FF92C8
S1130C600F931F932F933F934F935F936F937F93B0
S1130C708F939F93AF93BF93EF93FF93CF93DF93A0
S1130C8000D000D0CDB7DEB784E682BFDE9A1092E2
S1130C90A7051092A6058091A6059091A70508972F
S1130CA024F58091A6059091A705806487B9369AAA
S1130CB0349BFECFE091A605F091A70584B195B1D0
S1130CC0EE0FFF1FE855FA4F918380838091A605AC
S1130CD09091A70501969093A7058093A60580910E
S1130CE0A6059091A7050897E4F2E8EAF5E060818B
S1130CF07181072E000C880B990BF4D560939A052B
S1130D0070939B0580939C0590939D056091AA0523
S1130D107091AB05072E000C880B990BE3D56093FB
S1130D209E0570939F058093A0059093A105609103
S1130D30AC057091AD05072E000C880B990BD2D52C
S1130D406093A2057093A3058093A4059093A505D1
S1130D506091AE057091AF05072E000C880B990BBE
S1130D60C1D56093920570939305809394059093F5
S1130D7095056091B0057091B105072E000C880BA4
S1130D80990BB0D560939605709397058093980559
S1130D90909399056091B2057091B305072E000CEC
S1130DA0880B990B9FD560938E0570938F05809364
S1130DB090059093910580919A0590919B05A0913F
S1130DC09C05B0919D05E4E7F5E080839183A283BF
S1130DD0B38380919E0590919F05A091A005B09149
S1130DE0A10584839583A683B7838091A2059091FE
S1130DF0A305A091A405B091A50580879187A2873A
S1130E00B3878091920590919305A0919405B09138
S1130E10950584879587A687B787809196059091D5
S1130E209705A0919805B0919905808B918BA28B21
S1130E30B38B80918E0590918F05A0919005B09110
S1130E409105848B958BA68BB78B60919A057091D5
S1130E509B0580919C0590919D0596DBECE5F5E062
S1130E60608371838283938360919E0570919F0553
S1130E708091A0059091A10595D960936005709328
S1130E80610580936205909363056091A20570915A
S1130E90A3058091A4059091A505CEDA609364051D
S1130EA0709365058093660590936705609192053C
S1130EB070919305809194059091950515DA60934E
S1130EC068057093690580936A0590936B0560913A
S1130ED09605709197058091980590919905A1DCEC
S1130EE060936C0570936D0580936E0590936F0508
S1130EF060918E0570918F05809190059091910578
S1130F00EBDB609370057093710580937205909389
S1130F10730560910401709105018091060190911F
S1130F200701209118013091190140911A01509143
S1130F301B014090600550906105609062057090BF
S1130F406305C0900401D0900501E0900601F09083
S1130F500701C7D520E030EC4FE754E4C2D54B017C
S1130F605C0120E030E040EA50E4C301B201B9D5AD
S1130F709B01AC01C501B4011AD4A7019601AED3FB
S1130F80609330037093310380933203909333035F
S1130F906091300370913103809132039091330357
S1130FA055D5C0900001D0900101E0900201F0906D
S1130FB0030123E134E443E950E490D3A70196010B
S1130FC0F6D39B01AC0160E070E080E89FE386D338
S1130FD060932C0370932D0380932E0390932F031F
S1130FE0609118017091190180911A0190911B016F
S1130FF08090080190900901A0900A01B0900B0123
S1131000409068055090690560906A0570906B0582
S1131010C0900801D0900901E0900A01F0900B0102
S113102020E030EC4FE754E45CD5A501940159D598
S11310304B015C0120E030E040EA50E4C301B2011E
S113104050D59B01AC01C501B401B1D3A7019601F0
S113105045D36093340370933503809336039093A0
S11310603703ECE5F5E0608171818281938120E0B2
S113107030E048EC52E435D520E030EC4FE754E45E
S113108096D304E415E0F80160837183828393832B
S113109020912C0330912D0340912E0350912F0366
S11310A060E070E080E291E47FD5F80164837583A9
S11310B086839783609164057091650580916605C8
S11310C09091670520E030E049E353E46CD3882332
S11310D06CF480E090E0A8ECB1E480934C0590932C
S11310E04D05A0934E05B0934F051FC06091640554
S11310F070916505809166059091670520E030E068
S113110040EA50E4EED420E030E048EC52E4E9D484
S113111020E030EC4FEF54E44AD360934C057093D5
S11311204D0580934E0590934F05C0900C01D090CF
S11311300D01E0900E01F0900F018090100190904D
S11311401101A0901201B0901301609134037091C9
S11311503503809136039091370383D42B013C01EE
S113116060911401709115018091160190911701FD
S113117078D469837A838B839C83A501940160E08E
S113118070E080E89FE313D34B015C0129813A812D
S11311904B815C81C301B201A1D29B01AC01C501A9
S11311A0B4019FD44B015C0123E333E948E853E4E1
S11311B0C701B60194D29B01AC0160E070E080E805
S11311C09FE3F5D29B01AC01C501B40188D29B0118
S11311D0AC0160E070E080E89FE3E9D223E333E907
S11311E048E853E47BD26093500570935105809393
S11311F05205909353050CE515E0F80120893189D7
S11312004289538960E070ED8FE397E4D0D2609314
S11312105405709355058093560590935705F8012E
S1131220648975898689978920E030EC4FE754E416
S1131230BED220E030E849E953E453D46093580522
S11312407093590580935A0590935B058BB3409135
S11312508C0550918D058095282F207C81E090E0AD
S113126002C0880F991F4A95E2F7822B80958BBBA9
S1131270E0918C05F0918D05EE0FFF1FEE0FFF1F1F
S1131280EC58FA4F6081718182819381F8D2CB014D
S113129063DC8CE259DCE0918C05F0918D05EE0F56
S11312A0FF1FEE0FFF1FE45AFA4F608171818281A4
S11312B09381E5D2CB0150DC8CE246DCE0918C05D5
S11312C0F0918D05EE0FFF1FEE0FFF1FEC5BFA4F41
S11312D06081718182819381D2D2CB013DDC8DE02A
S11312E033DC8DE031DC8091B8059091B905853609
S11312F091050CF487C1E4E4F5E060817181828199
S1131300938120853185428553859CD31816B4F486
S1131310E4E4F5E0608171818281938120853185E7
S113132042855385DBD120E030E044E752E4D9D351
S1131330ABD2709379006093780004C01092790066
S113134010927800609148057091490580914A0592
S113135090914B0520E030E044EB52E424D2882302
S1131360F4F4209148053091490540914A05509183
S11313704B0560E070E088EC92E4B0D180D2FB01D0
S1131380FF2324F4EE27FF27E61BF70B48E24E9FCA
S113139090014F9F300D112439BD28BD02C019BCE6
S11313A018BC60914C0570914D0580914E0590914B
S11313B04F0520E030E04AEA52E444D318163CF4E6
S11313C085B380958F718068809585BB5BC0609183
S11313D04C0570914D0580914E0590914F0520E08C
S11313E030E046E952E42ED318163CF485B38095D8
S11313F08F71806C809585BB45C060914C05709160
S11314004D0580914E0590914F0520E030E042E873
S113141052E418D318163CF485B380958F71806418
S1131420809585BB2FC060914C0570914D058091CE
S11314304E0590914F0520E030E04CE552E402D394
S113144018163CF485B380958F718066809585BBB2
S113145019C060914C0570914D0580914E05909195
S11314604F0520E030E044E352E4ECD218163CF49B
S113147085B380958F718062809585BB03C085B3E9
S11314808F7185BBE4E4F5E0C484D584E684F784F5
S1131490608571858285938520E030E040EF51E4DA
S11314A01ED19B01AC01C701B601CCD21816CCF4F5
S11314B080913E0390913F03019690933F03809364
S11314C03E0380913C0390913D03892B09F0BAC0FF
S11314D080913E0390913F038C3D91050CF4A9C08B
S11314E0B1C080913E0390913F03019690933F03D6
S11314F080933E0380913C0390913D03019709F052
S1131500B9C080913E0390913F038C3D91050CF44A
S1131510A8C0B0C0609154057091550580915605DE
S11315209091570520E030E048EC52E43CD1882308
S113153034F08091380390913903019759F581E093
S113154090E0909339038093380380E090E0A0EF1B
S1131550B2E480931C0190931D01A0931E01B093EB
S11315601F0180913A0390913B03019690933B03B2
S113157080933A0380913A0390913B038639910515
S1131580DCF0109239031092380310923B0310924E
S11315903A0312C08091380390913903892B61F486
S11315A080E090E0A0E7B2E480931C0190931D01D9
S11315B0A0931E01B0931F0160911C0170911D0145
S11315C080911E0190911F0126B537B53A83298376
S11315D020E030E044E352E482D020E030E041EE09
S11315E054E4E5D06B017C01E981FA81BF0180E01C
S11315F090E076D19B01AC01C701B60172D244D10F
S11316007BBD6ABD8091B8059091B9050196909310
S1131610B9058093B805609158057091590580917A
S11316205A0590915B052BD140E050E081E0D9DA76
S11316302EC085B38095837F8460809585BBDF98B9
S1131640DE9868CF85B3837F85BBDE9A81E090E026
S113165090933D0380933C0310923F0310923E030A
S113166059CF85B38095837F8860809585BBDE984C
S1131670DF9A50CF85B3837F85BBDE9A10923D03FA
S113168010923C0310923F0310923E0343CF0F90FD
S11316900F900F900F90DF91CF91FF91EF91BF9139
S11316A0AF919F918F917F916F915F914F913F91F6
S11316B02F911F910F91FF90EF90DF90CF90BF90EB
S11316C0AF909F908F907F906F905F904F900F900E
S11316D00BBE0F900FBE0F901F9018955058BB274C
S11316E0AA270ED075C166D130F06BD120F031F449
S11316F09F3F11F41EF45BC10EF4E095E7FB51C16A
S1131700E92F77D180F3BA17620773078407950727
S113171018F071F49EF58FC10EF4E0950B2EBA2FDC
S1131720A02D0B01B90190010C01CA01A0011124E3
S1131730FF27591B99F0593F50F4503E68F11A168F
S1131740F040A22F232F342F4427585FF3CF469520
S113175037952795A795F0405395C9F77EF41F1642
S1131760BA0B620B730B840BBAF09150A1F0FF0F0C
S1131770BB1F661F771F881FC2F70EC0BA0F621FF8
S1131780731F841F48F4879577956795B795F795E8
S11317909E3F08F0B3CF9395880F08F09927EE0F7A
S11317A0979587950895D9D008F481E008950CD0D1
S11317B00FC107D140F0FED030F021F45F3F19F0A3
S11317C0F0C0511139C1F3C014D198F39923C9F36E
S11317D05523B1F3951B550BBB27AA276217730733
S11317E0840738F09F5F5F4F220F331F441FAA1FE7
S11317F0A9F333D00E2E3AF0E0E830D091505040A7
S1131800E695001CCAF729D0FE2F27D0660F771F54
S1131810881FBB1F261737074807AB07B0E809F036
S1131820BB0B802DBF01FF2793585F4F2AF09E3FCB
S1131830510568F0B6C000C15F3FECF3983EDCF39D
S1131840869577956795B795F7959F5FC9F7880F44
S1131850911D9695879597F90895E1E0660F771F96
S1131860881FBB1F621773078407BA0720F0621B27
S1131870730B840BBA0BEE1F88F7E095089504D020
S11318806894B111D9C00895BCD088F09F5790F0E6
S1131890B92F9927B751A0F0D1F0660F771F881F91
S11318A0991F1AF0BA95C9F712C0B13081F0C3D0AC
S11318B0B1E00895C0C0672F782F8827B85F39F04A
S11318C0B93FCCF3869577956795B395D9F73EF4F0
S11318D090958095709561957F4F8F4F9F4F089598
S11318E0E89409C097FB3EF49095809570956195B6
S11318F07F4F8F4F9F4F9923A9F0F92F96E9BB276C
S11319009395F695879577956795B795F111F8CFE7
S1131910FAF4BB0F11F460FF1BC06F5F7F4F8F4F52
S11319209F4F16C0882311F096E911C0772321F048
S11319309EE8872F762F05C0662371F096E8862FE0
S113194070E060E02AF09A95660F771F881FDAF737
S1131950880F9695879597F90895990F0008550F64
S1131960AA0BE0E8FEEF16161706E807F907C0F021
S113197012161306E407F50798F0621B730B840B29
S1131980950B39F40A2661F0232B242B252B21F403
S113199008950A2609F4A140A6958FEF811D811DA3
S11319A0089597F99F6780E870E060E008959FEFDD
S11319B080EC089500240A941616170618060906E2
S11319C0089500240A9412161306140605060895B1
S11319D0092E0394000C11F4882352F0BB0F40F439
S11319E0BF2B11F460FF04C06F5F7F4F8F4F9F4F79
S11319F0089557FD9058440F551F59F05F3F71F0FB
S1131A004795880F97FB991F61F09F3F79F0879561
S1131A100895121613061406551FF2CF4695F1DFEA
S1131A2008C0161617061806991FF1CF869571057A
S1131A30610508940895E894BB2766277727CB01AE
S1131A4097F908958ADF08F48FEF08950AD029EDF5
S1131A503BE54EED5EE345C00EF023C1A8CF68948C
S1131A60A0CFCFDFC8F39923D1F3C6F3DF93CF938D
S1131A701F930F93FF92C92FDD2788232AF0219704
S1131A80660F771F881FDAF720E030E040E85FEB4D
S1131A909FE3883920F0803E30F021968F771FDE57
S1131AA0ECE8F0E003C01BDEE9EBF0E008D18B01C9
S1131AB0BE01EC01FB2E6F5771097595771F880BDA
S1131AC0990B10DF28E132E741E35FE316D0AF2D35
S1131AD09801AE01FF900F911F91CF91DF9110DE1D
S1131AE077CF0BD075CF66DF28F06BDF18F0952326
S1131AF009F057CF5CCF11249FCF7BDFA0F3959FD4
S1131B00D1F3950F50E0551F629FF001729FBB27E0
S1131B10F00DB11D639FAA27F00DB11DAA1F649F8C
S1131B206627B00DA11D661F829F2227B00DA11D3F
S1131B30621F739FB00DA11D621F839FA00D611DC5
S1131B40221F749F3327A00D611D231F849F600DE6
S1131B50211D822F762F6A2F11249F5750408AF01F
S1131B60E1F088234AF0EE0FFF1FBB1F661F771FAB
S1131B70881F91505040A9F79E3F510570F011CF36
S1131B805BCF5F3FECF3983EDCF3869577956795E2
S1131B90B795F795E7959F5FC1F7FE2B880F911DC9
S1131BA09695879597F90895FA01EE0FFF1F3096E1
S1131BB02105310599F16115710561F48038BFE3A0
S1131BC09B0749F168949038810561F08038BFEF34
S1131BD09B0741F0992342F5FF3FE10531052105BB
S1131BE011F1E8940894E795D901AA2329F4AB2FBD
S1131BF0BE2FF85FD0F310C0FF5F70F4A695E0F736
S1131C00F73950F019F0FF3A38F49F779F930CD0CE
S1131C100F9007FC905808953EF0C9CE60E070E044
S1131C2080E89FE308954FE79F775F934F933F9337
S1131C302F9317DF2F913F914F915F9152DF05C092
S1131C4019F40EF0AECEF7CEB2CEDBDEC8F3963882
S1131C50C0F707F80F92E8942BE33AEA48EB5FE702
S1131C604EDF0F920F920F924DB75EB70F9289D04D
S1131C70E6EEF0E024D04F915F91EF91FF91E5956E
S1131C80EE1FFF1F49F0FE57E0684427EE0F441F84
S1131C90FA95E1F74195550B40D00F9007FE34C0FB
S1131CA008959F3F31F0915020F48795779567957B
S1131CB0B795880F911D9695879597F90895DF93A9
S1131CC0CF931F930F93FF92EF92DF927B018C01CE
S1131CD0689405C0DA2EEF0110DFFE01E894A591A7
S1131CE02591359145915591AEF3EF0109DDFE0142
S1131CF09701A801DA9479F7DF90EF90FF900F91A4
S1131D001F91CF91DF9108959B01AC0160E070E0D9
S1131D1080E89FE34CCD45CEC4CF73DEE8F399232E
S1131D20D9F3940F511DBBF39150504094F059F0E6
S1131D30882332F0660F771F881F91505040C1F7F7
S1131D409E3F510544F7880F911D9695879597F905
S1131D5008955F3FACF0983E9CF0BB27869577953D
S1131D606795B79508F4B1609395C1F7BB0F58F721
S1131D7011F460FFE8CF6F5F7F4F8F4F9F4FE3CF2A
S1131D805BCEFA01DC01AA0FBB1F9B01AC01BF575C
S1131D9028F422273327442750781FC0B75188F4EA
S1131DA0AB2F0024469537952795011CA395D2F3B4
S1131DB0002069F0220F331F441FB395DAF30DD0CE
S1131DC08DCC61307105A0E88A07B94630F49B01D7
S1131DD0AC016627772788279078309621F02083F6
S1131DE0318342835383089597FB072E16F400949E
S1131DF006D077FD08D00BD007FC05D03EF49095B3
S1131E0081959F4F0895709561957F4F0895AA1B02
S1131E10BB1B51E107C0AA1FBB1FA617B70710F0D1
S1131E20A61BB70B881F991F5A95A9F78095909503
S10D1E30BC01CD010895F894FFCF22
S1131E3ACDCC4C3F00E0924500E092450000C841F9
S1131E4A0020644500007A440000A040000070426B
S1131E5A6F12833A6F12833AE02D903A52499D3AAF
S1131E6AC364AA3A3480B73A17B7D13AFAEDEB3ACF
S1131E7A6F12033BE02D103B0AD7233B3480373BD8
S1131E8A5F294B3B4260653B24977F3B04E78C3BCD
S1131E9A52499D3BC364AA3B11C7BA3B5F29CB3B5A
S1131EAAAC8BDB3BD734EF3B2497FF3B27A0093CA1
S1131EBABC74133C52491D3CE71D273C7CF2303C60
S1131ECA11C73A3CA69B443C3B704E3CD044583C18
S1131EDA6519623C8C4A6A3C211F743C48507C3C1C
S1131EEAB840823C4B59863CDE718A3CBBB88D3C77
S1131EFA97FF903C7446943C99BB963CBE30993CFF
S1131F0AE3A59B3C52499D3CC0EC9E3C2E90A03CD0
S1131F1AE561A13CE561A13CE561A13CE561A13C27
S1131F2AE561A13C2E90A03CC0EC9E3C52499D3CEC
S1131F3AE3A59B3CBE30993C99BB963C7446943CC1
S1131F4A97FF903CBBB88D3CDE718A3C4B59863C6A
S1131F5AB840823C48507C3C211F743C8C4A6A3C01
S1131F6A6519623CD044583C3B704E3CA69B443CA9
S1131F7A11C73A3C7CF2303CE71D273C52491D3CD0
S1131F8ABC74133C27A0093C2497FF3BD734EF3B8E
S1131F9AAC8BDB3B5F29CB3B11C7BA3BC364AA3B7F
S1131FAA52499D3B04E78C3B24977F3B4260653B47
S1131FBA5F294B3B3480373B0AD7233BE02D103B48
S1131FCA6F12033BFAEDEB3A17B7D13A3480B73ABA
S1131FDAC364AA3A52499D3AE02D903A6F12833A61
S1131FEA6F12833A0000803F8B96FCBF1144793FFD
S1131FFA1BD6B7386BD337391BD6B7380000803FA6
S113200A95E7F6BF086F6E3FB2E11F3AA8DE9F3A22
S113201AB2E11F3A0000803F95E7F6BF086F6E3FB2
S113202AB2E11F3AA8DE9F3AB2E11F3A0000803FAC
S113203A6350FABF0CE0743F52207D39E612FD3931
S113204A52207D3900002041000048433333334095
S10F205ACDCC4C3D0000803F0000803FD6
S9030000FC
